:020000040800F2
:1000000068030020990100089D0100089F01000875
:10001000A1010008A3010008A501000800000000DC
:10002000000000000000000000000000A701000820
:10003000A901000800000000AB010008AD010008A4
:10004000AF010008AF010008AF010008933D0008B0
:10005000AF010008AF010008450D00088346000805
:10006000AF010008AF010008AF010008AF010008B0
:10007000AF010008AF010008AF010008AF010008A0
:10008000AF010008AF010008AF010008AF01000890
:10009000AF010008AF010008AF010008AF01000880
:1000A000AF010008AF010008AF010008AF01000870
:1000B000AF01000809420008AF010008AF010008C5
:1000C000AF010008AF010008AF010008AF01000850
:1000D000AF0100089F070008AF010008AF0100084A
:1000E000810D0008AF010008AF01000800F002F820
:1000F00000F041F80AA090E8000C82448344AAF181
:100100000107DA4501D100F036F8AFF2090EBAE87E
:100110000F0013F0010F18BFFB1A43F0010318473B
:10012000A87B0000C87B0000103A24BF78C878C1C3
:10013000FAD8520724BF30C830C144BF04680C60ED
:10014000704700000023002400250026103A28BF35
:1001500078C1FBD8520728BF30C148BF0B60704739
:10016000782905F08980002070471FB505F087FECB
:100170001FBD10B510BD05F04FF91146FFF7F5FF93
:1001800000F02FF805F06DF903B4FFF7F2FF03BCA0
:1001900000F0C6FA30BF000008480047FEE7FEE75F
:1001A000FEE7FEE7FEE7FEE7FEE7FEE7FEE7FEE727
:1001B00003480449024A044B70470000ED00000860
:1001C00068010020680300206801002010B54FF48A
:1001D000FC606B490880002001F081F903F0FEFD0E
:1001E00010BD08B50025092000F03EFA482000F0B7
:1001F000D3F84FF49651482000F01DFB41F61F4103
:1002000042F2107004F00FF801F086F900F03EFEA3
:1002100003F0E8FA4FF4FC6059490880002001F02F
:100220005EF904F058FF022000F009FA03F0D6FD51
:10023000A5E003F0D3FD03F0C5FE03F003FF00F0DB
:1002400052FE04464F48007A012851D1002004F0A4
:1002500067F900204B49087200BF04F0D7F94948FC
:1002600000883C282EDD47480088B4282ADA454813
:100270004088F52826DD43484088B0F5917F21DA93
:1002800003F079FE4FF6E0704FF49173B422F5213C
:1002900000903C2002F05FFE4FF6E0703A49088083
:1002A0004FF478403649088003460922FF215A203E
:1002B00003F07CF84FF478430A22FF217C2003F0FE
:1002C00075F80CE00120314908604FF00A0000F099
:1002D00079F82F48C06840F002002D49C8602B48CB
:1002E00000680028B9D04FF0010004F019F921E0AE
:1002F0000A2000F067F84FF61F004FF49173B42204
:10030000F52100903C2002F026FE4FF61F001E490A
:1003100008804FF478401A49088003460922FF21DB
:100320005A2003F043F84FF478430A22FF217C203F
:1003300003F03CF8012C07D14FF6FF7001F0CFF825
:1003400004F0A7F9FFF742FF022C04D103F013FEDB
:100350000A2000F037F8681CC5B2142D0CD1002516
:100360000C48006808B9012000E000200949086035
:100370004FF0C80000F026F8142000F023F858E7EA
:1003800012000020E8000020140000200401224296
:1003900000100140888122424FF0E021096921F0DC
:1003A00004014FF0E0221161C21700EB5272D2102B
:1003B0001F4B1A70194609784FF47A7251431D4A3F
:1003C0001180704701461B4A12884A434FF0E023D0
:1003D0005A6100229A6101221A6100BF4FF0E022A7
:1003E000106910F0010F02D010F4803FF6D0002207
:1003F0004FF0E0231A619A61704701460C4A127867
:100400004A434FF0E0235A6100229A6101221A61A7
:1004100000BF4FF0E022106910F0010F02D010F47D
:10042000803FF6D000224FF0E0231A619A617047B6
:100430000000002002000020AC4A0A400243AC4BFE
:100440001A6070470146072323EA01021202A84BF3
:100450001B1D18684FF6FF031840A64B18431043A6
:10046000A34B1B1D186070472DE9F0478046894655
:1004700014461D462046E11704EB91714FEAA10A8C
:10048000E11704EB91718910A4EB8101CFB2042034
:1004900000EBC700C7B22846FFF7D4FFC5F1040040
:1004A00008FA00F60F20284100EA0900064306F08A
:1004B0000F06202C0CDA904800684FF0010101FA79
:1004C00004F140EA01004FF0E021C1F800010DE025
:1004D0008A480068A4F120014FF0010202FA01F2FB
:1004E00040EA02004FF0E021C1F80401844850F8CE
:1004F0002A0006FA07F140EA0100814941F82A0082
:10050000BDE8F08770B504460B46CE1701EB967632
:10051000B010CE1701EB9676B610A1EB8606B606A4
:10052000350E784B9B6943F00103764EB3614FEA79
:10053000B63353F820300F26AE40B343724E46F820
:100540002030334653F8203004FA05F633436E4E1C
:1005500046F820306D4B1E6801238B401E436B4BC9
:100560001E6012F0010F08D0684B0C331B68012687
:100570008E403343654E0C36336012F0020F08D0C4
:10058000624B08331B6801268E4033435F4E0836AA
:10059000336070BD00B500205A490861C86014205E
:1005A000486100208861C8610846006840F0010089
:1005B0000860084640685649084052494860084665
:1005C0000068544908404F4908600846006820F414
:1005D000802008600846406820F4FE004860002043
:1005E000886000214FF00060FFF726FF00BD10B5C6
:1005F0003F480830006840F004003D490831086079
:100600004048C06940F080503E49C8614248406857
:1006100040F48070404948600846006840F004009B
:1006200008600846006840F002000860FFF7B2FD6D
:1006300010BD3048001D2E49091D08607047014655
:100640004906304A926942F001022E4B9A612E4AC5
:10065000083A526822F0E0622B4B083B5A601A4677
:1006600052680A435A60704730B504460025FFF7C8
:1006700091FF2448006840F480302249086000BFA0
:1006800020480068400CFBD04FF480601D49486052
:10069000A01EC4B20846406840EA8440486008464C
:1006A000406840F4803048601C48006840F03200E8
:1006B0001A4908601348006840F0807011490860CA
:1006C00000BF10480068400EFBD00E48406840F064
:1006D00002000C49486005E00A484068C0F38705FD
:1006E00005F00305022DF7D130BD000080FFFF1F8C
:1006F00008ED00E00000FA0500E100E004E100E0A0
:1007000000E400E000100240080001400004014045
:100710000000FFF8FFFFF6FE0070004000200240DE
:10072000014600BF704700BF844A128812F0400F94
:10073000FAD0C2B2814B1B1D1A80704710B5024619
:10074000514000230CE001F001044908C1F30E01FF
:10075000012C02D14AF20100414089B2581CC3B2B7
:10076000082BF0DB084610BD2DE9F04305460E4688
:100770004FF6FF744FF0000907E028782146FFF795
:10078000DDFF04466D1C09F10109B145F5D3E7B25F
:10079000C4F3072848EA07242046BDE8F08300B5E3
:1007A0006648008810F0200F44D06449091D09886C
:1007B000CAB263490878411C614B1970D91C0A54AC
:1007C000C81E0078012806D1C81EC078012802D0B2
:1007D0000020C91E08705A480078022806D15848DF
:1007E0000079032802D00020554908705448007849
:1007F000122818D10F215248C01CFFF7B5FF5149EC
:100800000860084601784E48C07C81420BD14D48B3
:1008100041784B48807C814205D101204A490870CB
:1008200000204749087046480078122802DD002061
:100830004349087000BD2DE9F05F05460E463001C2
:1008400005F042FA8146414905FB01F005F03CFA0A
:100850008246494605F022F90746384605F0FCF97C
:1008600084B2204605F030FA8346394605F013FB82
:1008700082464FF0834105F03BFA814605F0ECF9E2
:100880008046240104EB080084B23148806940F0BE
:1008900004002F4988610846806940F480408861DF
:1008A0002C48006820F47F602A49086008460068E8
:1008B00040F40B6008602648C06840F4804024493A
:1008C000C8600846C06820F48040C8601B480830F3
:1008D0000480001D008842F20C01084317490C31C6
:1008E00008800846008840F4807008800846008828
:1008F00040F0200008800223252203210846FFF74C
:10090000B3FDBDE8F09F00BF0C49098811F0400F0E
:10091000FAD00A49091D0880704710B502460B46F7
:10092000581CC3B203E012F8010BFFF7ECFF181ECE
:10093000A3F10101CBB2F6DC10BD0000003801408C
:10094000B40000200C0000200400002040420F00F2
:10095000001002400408014010B500F0BBF810BDC3
:1009600070B50446002600F0CCF82546E11704EBEC
:1009700011610912A02202EB4101C8B200F075F921
:1009800000F002F9E11704EB11610912A4EB012157
:10099000C8B200F06AF900F0F7F800F0B2F8A12050
:1009A00000F063F900F0F0F8002000F08EF9064640
:1009B00000F0C9F8304670BD70B504460E4600F030
:1009C000A0F82546E11704EB11610912A02202EB01
:1009D0004101C8B200F049F900F0D6F8E11704EB84
:1009E00011610912A4EB0121C8B200F03EF900F038
:1009F000CBF8304600F039F900F0C6F800F0A3F863
:100A00000A20FFF7DFFC70BD2DE9F04105460E46D8
:100A10001746002409E0E20026FA02F2D1B22A19B0
:100A200090B2FFF7C9FF601CC4B2BC42F3DBBDE863
:100A3000F0812DE9F04107460C460026002509E02B
:100A400036023919491B491E88B2FFF789FF06444F
:100A5000681CC5B2A542F3DB3046BDE8F08110B595
:100A6000FF20FFF77DFF0446552C01D1002010BD6B
:100A70005521FF20FFF7A0FFFF20FFF771FF04467D
:100A8000552C01D10020F2E70120F0E770B50646B1
:100A90000C46154608E03046721C96B2FFF760FF20
:100AA00004F8010B681E85B2002DF4D170BD70B53D
:100AB00005460C46164606E021782846FFF77CFFDF
:100AC000681C85B2641C3000A6F101018EB2F3D11E
:100AD00070BD00009548806940F01000934988611E
:100AE0009348406820F47F20914948600846406858
:100AF00040F44C3048600846C06840F4C050C860BC
:100B0000704710B58A48406820F4704088494860B2
:100B10000846406840F4405048600120854908601C
:100B20008549C1F8B0014FF00400FFF766FC0020D2
:100B3000804908604FF00400FFF75FFC00207E4909
:100B4000C1F8B00110BD10B57948406820F470407C
:100B5000774948600846406840F4405048600020AB
:100B6000764908607449C1F8AC014FF00400FFF702
:100B700044FC0120714908606F49C1F8AC014FF095
:100B80000400FFF73AFC10BD10B500246848406827
:100B900020F47040664948600846406840F40040D0
:100BA0004860012063490860FFF727FC0120624983
:100BB000C1F8B001FFF721FC07E0601CC4B2FA2CB9
:100BC00003DDFFF7C0FF012010BD5D48006800286D
:100BD000F3D15A49086000BFF6E710B50020574925
:100BE00008605348406820F4704051494860084606
:100BF000406840F4405048604FF000004E49C1F852
:100C0000AC014FF00200FFF7F8FB01204B490860F0
:100C10004FF00200FFF7F1FB00204749C1F8B00197
:100C200010BD10B50020454908604148406820F4D7
:100C300070403F4948600846406840F44050486072
:100C40004FF001003C49C1F8AC014FF00200FFF742
:100C5000D4FB0120394908604FF00200FFF7CDFBBB
:100C600000203549C1F8B00110BD70B504463048C8
:100C7000406820F470402E4948600846406840F4BF
:100C80004050486000202D49086005461AE0E00900
:100C9000284908604FEA44604FEA10644FF00200B0
:100CA000FFF7ABFB01202449C1F8B0010220FFF798
:100CB000A4FB0020214908604FF00200FFF79DFBD4
:100CC000681CC5B2082DE2DB70BD70B50546002476
:100CD0001748406820F4704015494860084640684D
:100CE00040F400404860002616E0002013490860E8
:100CF0004FF00200FFF781FB01200F49C1F8B0015E
:100D00006006040E0E48006808B1601CC4B20120E1
:100D1000FFF773FB701CC6B2082EE6DB15B9FFF7B0
:100D200080FF01E0FFF759FF204670BD0010024030
:100D300000100140AC01224200002242B0012242D8
:100D40002C01224210B50A20FFF73CFB4448006802
:100D5000012810D14348006808B9012000E00020B4
:100D6000404908604048D0F8880108B9012000E0F7
:100D700000203E4908604FF001003D49086010BD69
:100D800010B50A20FFF71EFB3A48006840B9354805
:100D9000006808B9012000E00020324908600AE03C
:100DA0003548006838B93148006808B9012000E0CA
:100DB00000202E4908604FF400502D4908604FF480
:100DC0000040086010BD10B52C48806940F0040058
:100DD0002A4988610220FFF732FC2948006820F088
:100DE0000F00274908600846006840F008000860C6
:100DF000081D0068234908402149091D086008466C
:100E00000068214908431E49091D08601C480C3030
:100E1000006840F400501A490C3108600846006828
:100E200040F400400860022200210846FFF76AFBF8
:100E300001220D210020FFF765FB01220F21002078
:100E4000FFF760FB0223062219461846FFF70CFB4A
:100E50000223282201211846FFF706FB10BD0000DF
:100E600000012142A00121420080224288812242C9
:100E700014040140340121423C012142001002408F
:100E800000080140FFFF0F0F000080803748806995
:100E900040F00400354988613548006820F00F00B3
:100EA000334908600846006840F008000860081DE3
:100EB0000068304908402E49091D0860084600684E
:100EC0002D4908432A49091D086029480C3000684B
:100ED00040F4005026490C3108600846006840F490
:100EE00000400860704710B50220FFF7A8FB2348B8
:100EF000007838B32248006830B12248006818B141
:100F00002148006801281DD10A20FFF75BFA002064
:100F10001A4908701A48006820B90120FFF78FFBB2
:100F2000012010BD1748006820B90120FFF787FB9A
:100F30000220F6E714480068012811D1FFF77FFB73
:100F40000320EEE70E480068012809D10D4800682B
:100F5000012805D10C48006810B901200749087024
:100F60000120FFF76CFB0020DBE7000000100240CF
:100F700000080140FFFF0F0F0000808010000020DC
:100F8000340121423C012142000121424FF4807191
:100F9000FE4A516149005161FD490860802151615B
:100FA000116189001161704710B54FF08830F84920
:100FB0000C390860091D08600020F5490860881593
:100FC000F24908614000486140204861F1480088CA
:100FD000A0F50941893902D10220FFF70EFA40201D
:100FE000EA490861EA48001F006884B248150861B0
:100FF0004FF03330E6490C390860091D08604FF6A0
:10100000FF70E3490860204610BD10B504460B464A
:101010002046FFF7BBFF4FF48070DC4908614000B9
:101020004861DB48036080204861086180000861F6
:1010300010BD10B504462046FFF7A8FFFFF7B4FF28
:1010400010BD00B5D3480088A0F51341413903D144
:101050002C20FFF79BFF02E02220FFF797FF00BD47
:101060004FF48071C94A116149005161C849086053
:1010700080215161116189001161704730B50146CD
:1010800001F01F04C1F34513CA0AE50205EB43153D
:101090001544A8B230BD2DE9F04105460E46F02DAD
:1010A00002DAB6F5A07F02DB0020BDE8F081314610
:1010B000284604F0E1F9B7480088A0F5134141390A
:1010C00003D12E20FFF762FF02E02220FFF75EFF30
:1010D0004FF08830AE490C390860091D08604FF6A2
:1010E000FF70AB4908608815A84908614000486155
:1010F000402048610120FFF780F94020A3490861A2
:1011000048610120FFF779F94020A0490861A04813
:10111000001F006884B29F480088A0F51341413940
:101120000AD140209949486108619948001F006828
:101130001FFA80F8E7B23F024FF40070934908614C
:101140004FF0333092490C390860091D08604FF6A2
:10115000FF708F4908608F480088A0F5134125393A
:1011600017D08C480088A0F58A41353911D08948BC
:101170000088A0F58A4131390BD086480088A0F557
:101180000941893905D083480088A0F535410539E2
:1011900001D1204689E77F480088A0F513414139F5
:1011A00007D1E012C002B91240EA411040EAE8203B
:1011B0007BE72046FFF762FF77E700B575480088B8
:1011C000A0F51341413903D12920FFF7DFFE04E0E8
:1011D00040F273110720FFF718FF00BD00B56D48FE
:1011E0000088A0F51341413903D12820FFF7CEFE36
:1011F00003E000210720FFF708FF00BD70B505469A
:101200000024002663480088A0F5134141397DD1B0
:10121000082D1CD2DFE805F00406090C0F12151882
:1012200000BF14E044F0800411E044F040040EE0FC
:1012300044F0C0040BE044F0200408E044F06004F3
:1012400005E044F0A00402E044F0E00400BF00BF69
:10125000362644F0080421463046FFF7D6FE14F047
:10126000200F75D02A20FFF791FE4FF48070474978
:1012700008614000486100204549086080204349DA
:1012800048610861800008614010086140004861C1
:1012900000203F49086080203C4948610861800087
:1012A0000861401008614000486101203849086029
:1012B000802036494861086180000861401008615B
:1012C000400048613F203249086080202F49486132
:1012D0000861800008612B20FFF758FE4FF48070F2
:1012E0002A4908614000486100202949086080209F
:1012F000264948610861800008614010086140008B
:101300004861002022490860802000E09AE01F49DF
:101310004861086180000861401008614000486130
:1013200000201B490860802018494861086180003E
:1013300008614010086140004861EF2014490860CE
:10134000802012494861086180000861ACE0FFE735
:101350002A20FFF71BFE4FF480700C490861400003
:10136000486100200A4908608020084948610861F6
:101370008000086140100861400048610020044975
:101380000860802001494861086105E000100140C3
:101390000C0C01401600002080000861401008611C
:1013A000400048610020FE4908608020FD494861F6
:1013B0000861800008614010086140004861EF202A
:1013C000F74908608020F74948610861800008619A
:1013D0002B20FFF7DBFD4FF48070F24908614000DD
:1013E00048610020EE4908608020EE4948610861AC
:1013F0008000086140100861400048610020E84911
:1014000008608020E7494861086180000861401059
:101410000861400048610120E14908608020E149FD
:10142000486108618000086140100861400048611F
:101430003F20DB4908608020DA494861086180006C
:10144000086131E0082D1CD2DFE805F004070A0D21
:101450000F12151844F0300413E044F0100410E0AB
:1014600044F020040DE000BF0BE044F0380408E035
:1014700044F0280405E044F0180402E044F00804B5
:1014800000BF00BFC8480088A0F50941893904D1D0
:10149000112646F24000044302E0032644F480543F
:1014A00021463046FFF7B1FD70BD70B504460D46CC
:1014B0002946204603F0E0FFFFF7C3FD4FF480709C
:1014C000B849086140004861B8480088B4490860DC
:1014D0008020B449486108618000086170BD70B522
:1014E000044600250021084603F0C6FFFFF7A9FDCA
:1014F00000BF0DE04FF48070AA49086140004861C8
:10150000A7480460802048610861800008616D1C64
:10151000B5F5963FEED370BD10B5A548806940F093
:101520000800A34988610846806940F0100088617E
:101530000846806940F0010088610120FFF77FF8CC
:10154000984840686FF30B00964948600846406829
:1015500040F233310843934948600846006820F060
:101560007F4008600846006840F04C50086008461C
:10157000C06840F4F860C8604FF0333088490839DB
:101580000860091F08604FF6FF7085490860322027
:10159000FEF718FF01210020FFF737FD3220FEF78C
:1015A00011FF0020FFF745FD7F49088008460088AD
:1015B00028B108460088A0F57F41FF3918D1D32013
:1015C000FFF7E4FCFFF7F0FCFFF7EEFCFFF7ECFCA5
:1015D00000F0BF0074490880084600880006000C2F
:1015E0000880FFF7E1FC7049098808436E490880CC
:1015F0006D4801886FA003F0FDFD6B480088A0F5E1
:10160000134141397ED1CF20FFF7C0FC4FF48070E9
:1016100064490861400048610020614908608020F9
:10162000604948610861800008614010086140001D
:101630004861C1205A49086080205A4948610861C0
:101640008000086140100861400048613020544922
:101650000860802053494861086180000861ED20DE
:10166000FFF794FC4FF480704E49086140004861D8
:1016700064204B49086080204A4948610861800025
:101680000861401008614000486103204449086037
:101690008020444948610861800008614010086169
:1016A0004000486112203E49086080203D49486161
:1016B0000861800008614010086140004861812095
:1016C0003749086080203749486108618000086117
:1016D000E820FFF75BFC4FF480703249086140005E
:1016E000486185202E49086080202E4948610861A4
:1016F00080000861401008614000486110202849BE
:10170000086000E089E38020264948610861800084
:10171000086140100861400048617A202049086053
:10172000802020494861086180000861CB20FFF7D4
:101730002DFC4FF480701B4908614000486139203E
:1017400017490860802017494861086180000861D6
:1017500040100861400048612C2011490860802039
:10176000104948610861800008614010086140002C
:10177000486100200A49086080200A4948610861E0
:10178000800008614010086140004861342004492D
:10179000086080200349486108618000086111E009
:1017A0000C0C014000100140160000201200002027
:1017B00000100240204C43442049443A25780D0A49
:1017C0000000000040100861400048610220FE490E
:1017D00008608020FD494861086180000861F720A9
:1017E000FFF7D4FB4FF48070F8490861400048616E
:1017F0002020F54908608020F44948610861800094
:101800000861EA20FFF7C2FB4FF48070EF490861DE
:10181000400048610020EC4908608020EB494861A5
:1018200008618000086140100861400048610020A4
:10183000E54908608020E549486108618000086149
:10184000C020FFF7A3FB4FF48070E049086140001F
:1018500048611B20DC4908608020DC494861086140
:1018600080000861C120FFF791FB4FF48070D749D9
:101870000861400048610120D34908608020D349B5
:101880004861086180000861C520FFF77FFB4FF4C5
:101890008070CE490861400048613020CA49086024
:1018A0008020CA49486108618000086140100861D1
:1018B000400048613020C44908608020C349486125
:1018C000086180000861C720FFF760FB4FF480705B
:1018D000BE49086140004861B720BB4908608020CC
:1018E000BA4948610861800008613620FFF74EFB65
:1018F0004FF48070B5490861400048614820B24902
:1019000008608020B14948610861800008613A2080
:10191000FFF73CFB4FF48070AC4908614000486120
:101920005520A94908608020A849486108618000C5
:101930000861B120FFF72AFB4FF48070A3490861CA
:10194000400048610020A049086080209F4948610C
:1019500008618000086140100861400048611A2059
:1019600099490860802099494861086180000861B0
:10197000B620FFF70BFB4FF48070944908614000DC
:1019800048610A20904908608020904948610861B8
:10199000800008614010086140004861A2208A4927
:1019A0000860802089494861086180000861F22050
:1019B000FFF7ECFA4FF480708449086140004861F9
:1019C00000208149086080208049486108618000CA
:1019D00008612620FFF7DAFA4FF480707B4908612E
:1019E00040004861012078490860802077494861BB
:1019F000086180000861E020FFF7C8FA4FF48070AA
:101A000072490861400048610F206F4908608020DA
:101A10006E4948610861800008614010086140001B
:101A200048612A2068490860802068494861086147
:101A30008000086140100861400048612820624928
:101A40000860802061494861086180000861401099
:101A500008614000486108205B49086080205B49BC
:101A600048610861800008614010086140004861D9
:101A70000E20554908608020544948610861800063
:101A80000861401008614000486108204E49086024
:101A900080204E494861086180000861401008615B
:101AA0004000486154204849086080204749486107
:101AB0000861800008614010086140004861A92069
:101AC00041490860802041494861086180000861FF
:101AD000401008614000486143203B490860802075
:101AE0003A4948610861800008614010086140007F
:101AF00048610A20344908608020344948610861FF
:101B00008000086140100861400048610F202E49A4
:101B1000086080202D4948610861800008614010FC
:101B2000086140004861002027490860802027495B
:101B30004861086180000861401008614000486108
:101B40000020214908608020204948610861800008
:101B50000861401008614000486100201A4908608F
:101B600080201A49486108618000086140100861BE
:101B700040004861002014490860802013494861F2
:101B8000086180000861E120FFF700FA4FF48070DF
:101B90000E4908614000486100200B490860802020
:101BA0000A494861086180000861401008614000EE
:101BB0004861152004490860802004494861086193
:101BC00080000861401003E00C0C0140001001404F
:101BD0000861400048611720FE4908608020FE49E6
:101BE0004861086180000861401008614000486158
:101BF0000720F84908608020F749486108618000A3
:101C0000086140100861400048611120F1490860F6
:101C10008020F14948610861800008614010086136
:101C2000400048610620EB4908608020EA4948618D
:101C300008618000086140100861400048612B2065
:101C4000E44908608020E449486108618000086137
:101C500040100861400048615620DE49086080203D
:101C6000DD4948610861800008614010086140005A
:101C700048613C20D74908608020D7494861086105
:101C80008000086140100861400048610520D1498A
:101C900008608020D04948610861800008614010D8
:101CA0000861400048611020CA4908608020CA4984
:101CB0004861086180000861401008614000486187
:101CC0000F20C44908608020C34948610861800032
:101CD000086140100861400048613F20BD4908602C
:101CE0008020BD494861086180000861401008619A
:101CF000400048613F20B74908608020B6494861EC
:101D000008618000086140100861400048610F20B0
:101D1000B04908608020B0494861086180000861CE
:101D20002B20FFF733F94FF48070AB490861400076
:101D300048610020A74908608020A74948610861E0
:101D40008000086140100861400048610020A149FE
:101D500008608020A0494861086180000861401047
:101D600008614000486101209A49086080209A4932
:101D700048610861800008614010086140004861C6
:101D80003F209449086080209349486108618000A1
:101D900008612A20FFF7FAF84FF480708E49086135
:101DA0004000486100208B49086080208A494861D2
:101DB000086180000861401008614000486100200F
:101DC0008449086080208449486108618000086176
:101DD000401008614000486100207E490860802072
:101DE0007D49486108618000086140100861400039
:101DF0004861EF2077490860802077494861086191
:101E0000800008611120FFF7C1F87820FEF7DAFAA8
:101E10002920FFF7BBF801F093B870480088A0F5BF
:101E2000134125397ED147F6F001E520FFF7EDF8A3
:101E30004FF480710120FFF7E8F84FF4E0610220D1
:101E4000FFF7E3F841F230010320FFF7DEF800214D
:101E50000420FFF7DAF840F202210820FFF7D5F856
:101E600000210920FFF7D1F800210A20FFF7CDF863
:101E700000210C20FFF7C9F800210D20FFF7C5F85D
:101E800000210F20FFF7C1F800211020FFF7BDF857
:101E900007211120FFF7B9F800211220FFF7B5F84C
:101EA00000211320FFF7B1F800210720FFF7ADF85C
:101EB00041F290611020FFF7A8F840F2272111208D
:101EC000FFF7A3F89D211220FFF79FF84FF4C851A8
:101ED0001320FFF79AF825212920FFF796F80D2106
:101EE0002B20FFF792F807213020FFF78EF840F201
:101EF00003313120FFF789F803213220FFF785F8FD
:101F000040F206213520FFF780F808213620FFF740
:101F10007CF840F206413720FFF777F84FF4417123
:101F2000382000E05FE0FFF770F807213920FFF765
:101F30006CF840F202613C20FFF767F808213D2071
:101F4000FFF763F800215020FFF75FF8EF215120E1
:101F5000FFF75BF800215220FFF757F840F23F11DE
:101F60005320FFF752F84FF427416020FFF74DF858
:101F700001216120FFF749F800216A20FFF745F8A9
:101F800000218020FFF741F800218120FFF73DF874
:101F900000218220FFF739F800218320FFF735F870
:101FA00000218420FFF731F800218520FFF72DF86C
:101FB00010219020FFF729F84FF4C0619220FFF71D
:101FC00024F840F233110720FFF71FF822210020E8
:101FD00006E000000C0C014000100140160000203B
:101FE000FFF713F817E7FE480088A0F513412839DA
:101FF0007ED11021E720FFF708F801210020FFF72C
:1020000004F84FF480710120FEF7FFFF4FF4E06108
:102010000220FEF7FAFF41F230010320FEF7F5FF40
:1020200000210420FEF7F1FF40F207210820FEF70F
:10203000ECFF00210920FEF7E8FF00210A20FEF74F
:10204000E4FF01210C20FEF7E0FF00210D20FEF748
:10205000DCFF00210F20FEF7D8FF00211020FEF743
:10206000D4FF07211120FEF7D0FF00211220FEF738
:10207000CCFF00211320FEF7C8FF3220FEF7A2F9A3
:1020800041F290511020FEF7C0FF40F227211120AD
:10209000FEF7BBFF3220FEF795F99C211220FEF7D8
:1020A000B4FF3220FEF78EF94FF4C8511320FEF72B
:1020B000ACFF23212920FEF7A8FF0E212B20FEF7DD
:1020C000A4FF3220FEF77EF900212020FEF79DFFBD
:1020D00040F23F112120FEF798FF3220FEF772F9FF
:1020E00007213020FEF791FF40F20771312000E018
:1020F00086E0FEF78AFF06213220FEF786FF40F2D7
:1021000004713520FEF781FF41F604713620FEF799
:102110007CFF04213720FEF778FF00213820FEF7EE
:1021200074FF40F206713920FEF76FFF40F2017133
:102130003C20FEF76AFF0F213D20FEF766FF3220AC
:10214000FEF740F900215020FEF75FFFEF215120FC
:10215000FEF75BFF00215220FEF757FF40F23F11D0
:102160005320FEF752FF4FF427416020FEF74DFF4A
:1021700001216120FEF749FF00216A20FEF745FF9B
:1021800000218020FEF741FF00218120FEF73DFF66
:1021900000218220FEF739FF00218320FEF735FF62
:1021A00000218420FEF731FF00218520FEF72DFF5E
:1021B00010219020FEF729FF00219220FEF725FF35
:1021C00003219320FEF721FF4FF488719520FEF73D
:1021D0001CFF00219720FEF718FF00219820FEF732
:1021E00014FF40F233110720FEF70FFF00212020DB
:1021F000FEF70BFF40F23F112120FEF706FF0AE633
:1022000077480088A0F51341203904D0744800882D
:10221000B0F5134F7ED100210846FEF7F6FE4FF4CD
:1022200080710120FEF7F1FE4FF4E0610220FEF71D
:10223000ECFE41F230010320FEF7E7FE002104200E
:10224000FEF7E3FE40F202210820FEF7DEFE002149
:102250000920FEF7DAFE00210A20FEF7D6FE012152
:102260000C20FEF7D2FE00210D20FEF7CEFE00214D
:102270000F20FEF7CAFE3220FEF7A4F840F201114B
:102280000720FEF7C2FE3220FEF79CF84FF486517D
:102290001020FEF7BAFE07211120FEF7B6FE4FF41C
:1022A00088711220FEF7B1FE4FF430611320FEF763
:1022B000ACFE00212920FEF7A8FE44F210012B20DD
:1022C000FEF7A3FE00215020FEF79FFEEF215120D4
:1022D000FEF79BFE00215220FEF797FE40F23F11D1
:1022E0005320FEF792FE4FF41C516020FEF78DFE46
:1022F00001216120FEF789FE00216A20FEF785FE9C
:1023000000218020FEF781FE00218120FEF77DFE66
:10231000002100E02DE08220FEF777FE00218320DF
:10232000FEF773FE00218420FEF76FFE002185205A
:10233000FEF76BFE10219020FEF767FE0021922031
:10234000FEF763FE01219320FEF75FFE4FF48871D4
:102350009520FEF75AFE00219720FEF756FE002139
:102360009820FEF752FE40F273110720FEF74DFE53
:1023700051E51B480088A0F5A84108397ED14FF4EB
:1023800080710120FEF741FE4FF4E0610220FEF76C
:102390003CFE41F230010320FEF737FE002104200D
:1023A000FEF733FE40F207210820FEF72EFE002143
:1023B0000920FEF72AFE00210A20FEF726FE002152
:1023C0000C20FEF722FE00210D20FEF71EFE00214C
:1023D0000F20FEF71AFE1420FDF7F4FF02E00000C4
:1023E0001600002041F2B0611020FEF70EFE012120
:1023F0001120FEF70AFE01211720FEF706FE4FF41A
:102400009C711220FEF701FE4FF400611320FEF7CD
:10241000FCFD09212920FEF7F8FD09212A20FEF7FD
:10242000F4FD0021A420FEF7F0FD00215020FEF76E
:10243000ECFDEF215120FEF7E8FD00215220FEF7D0
:10244000E4FD40F23F115320FEF7DFFD4FF41C5135
:102450006020FEF7DAFD01216120FEF7D6FD0021A4
:102460006A20FEF7D2FD00218020FEF7CEFD00217C
:102470008120FEF7CAFD0021822000E027E0FEF760
:10248000C4FD00218320FEF7C0FD00218420FEF75B
:10249000BCFD00218520FEF7B8FD13219020FEF73A
:1024A000B4FD00219220FEF7B0FD03219320FEF73A
:1024B000ACFD4FF488719520FEF7A7FD40F2731133
:1024C0000720FEF7A2FD3220FDF77CFFA3E4FE48C3
:1024D0000088A0F5A85105397ED10720FEF795FDAB
:1024E0003220FDF76FFF4FF48E711220FEF78DFD45
:1024F0000121A420FEF789FD0F210820FEF785FDAC
:1025000008210A20FEF781FD08210D20FEF77DFD40
:1025100040F207713020FEF778FD07213120FEF7E9
:1025200074FD40F203613220FEF76FFD4FF4E0616D
:102530003320FEF76AFD40F202213420FEF765FDEC
:1025400002213520FEF761FD41F60F713620FEF7BE
:102550005CFD40F207713720FEF757FD002138205F
:10256000FEF753FD00213920FEF74FFD40F20771C1
:102570003A20FEF74AFD00213B20FEF746FD0721E9
:102580003C20FEF742FD00213D20FEF73EFD3220BB
:10259000FDF718FF01210720FEF737FD0121172065
:1025A000FEF733FD3220FDF70DFF4FF4BD51102033
:1025B000FEF72BFD40F217211120FEF726FD4FF408
:1025C0008F711220FEF721FD4FF470611320FEF78A
:1025D0001CFD00212A2000E093E0FEF716FD0A21F1
:1025E0002920FEF712FD4FF49F711220FEF70DFD1A
:1025F00000215020FEF709FDEF215120FEF705FDD7
:1026000000215220FEF701FD40F23F115320FEF75A
:10261000FCFC4FF41C516020FEF7F7FC0121612007
:10262000FEF7F3FC00216A20FEF7EFFC002180207A
:10263000FEF7EBFC00218120FEF7E7FC0021822061
:10264000FEF7E3FC00218320FEF7DFFC002184205D
:10265000FEF7DBFC00218520FEF7D7FC132190203C
:10266000FEF7D3FC4FF440719220FEF7CEFC05211B
:102670009320FEF7CAFC00219520FEF7C6FC00213E
:102680009720FEF7C2FC00219820FEF7BEFC4FF415
:1026900080710120FEF7B9FC4FF4E0610220FEF7E3
:1026A000B4FC41F230010320FEF7AFFC002104200E
:1026B000FEF7ABFC00210C20FEF7A7FC00210F2049
:1026C000FEF7A3FC00212020FEF79FFC0021212023
:1026D000FEF79BFC21210720FEF797FC1420FDF755
:1026E00071FE61210720FEF790FC1420FDF76AFEC1
:1026F00040F273110720FEF788FC1420FDF762FEFC
:1027000070E471480088A0F5354105397DD108464F
:10271000FEF77BFC00210846FEF777FC0021084607
:10272000FEF773FC00210846FEF76FFC0121A42090
:10273000FEF76BFC1420FDF745FE4FF41C516020A2
:10274000FEF763FC40F202210820FEF75EFC4FF426
:1027500005713020FEF759FC43F215713120FEF768
:1027600054FC40F204613220FEF74FFC40F6166143
:102770003320FEF74AFC42F211213420FEF745FCDB
:102780004FF4A8513520FEF740FC48F2075136209F
:10279000FEF73BFC41F207413720FEF736FC41F2E1
:1027A00003413820FEF731FC20213920FEF72DFCB3
:1027B0001A219020FEF729FC00211020FEF725FCAD
:1027C00007211120FEF721FC00211220FEF71DFC3D
:1027D00000211320FEF719FC1420FDF7F3FD4FF440
:1027E000E6611020FEF711FC40F237111120FEF7D0
:1027F0000CFC1420FDF7E6FD4FF4DC711220FEF70F
:1028000004FC1420FDF7DEFD00E086E04FF470616B
:102810001320FEF7FAFB80212A20FEF7F6FB482161
:102820002920FEF7F2FB1420FDF7CCFD4FF4807158
:102830000120FEF7EAFB4FF4E0610220FEF7E5FB22
:1028400041F230210320FEF7E0FB40F20221082094
:10285000FEF7DBFB00210A20FEF7D7FB00210C204E
:10286000FEF7D3FB00210D20FEF7CFFB30210E2019
:10287000FEF7CBFB00215020FEF7C7FBEF215120D4
:10288000FEF7C3FB00215220FEF7BFFB40F23F11D1
:102890005320FEF7BAFB4FF41C516020FEF7B5FB46
:1028A00001216120FEF7B1FB00216A20FEF7ADFB9C
:1028B00011219020FEF7A9FB4FF4C0619220FEF792
:1028C000A4FB40F2024101E0160000209320FEF735
:1028D0009CFB02219420FEF798FB1420FDF772FD6B
:1028E00001210720FEF791FB1420FDF76BFD61210C
:1028F0000720FEF78AFB40F273110720FEF785FBE5
:1029000000212020FEF781FB00212120FEF77DFB26
:1029100022210020FEF779FB12E3FE480088A0F593
:10292000454105397DD10846FEF76FFB0021084679
:10293000FEF76BFB1420FDF745FD00210846FEF76E
:1029400064FB00210846FEF760FB00210846FEF705
:102950005CFB00210846FEF758FB0121A420FEF78E
:1029600054FB1420FDF72EFD4FF41C516020FEF7A0
:102970004CFB40F606010820FEF747FB40F20371CE
:102980003020FEF742FB01213120FEF73EFB0421FF
:102990003220FEF73AFB4FF481713320FEF735FB0E
:1029A0004FF440713420FEF730FB40F20311352024
:1029B000FEF72BFB1F213620FEF727FB40F20371A9
:1029C0003720FEF722FB01213820FEF71EFB0421F1
:1029D0003920FEF71AFB15219020FEF716FB4FF465
:1029E00082611020FEF711FB40F247211120FEF713
:1029F0000CFB4FF4DE711220FEF707FB4FF4606111
:102A00001320FEF702FB7820FDF7DCFC4FF4807109
:102A10000120FEF7FAFA4FF400710220FEF7F5FAF2
:102A200000E050E041F230010320FEF7EEFA082109
:102A30000A20FEF7EAFA00210C20FEF7E6FA202130
:102A40000E20FEF7E2FA00210F20FEF7DEFA002149
:102A50002020FEF7DAFA00212120FEF7D6FA3D21E8
:102A60002A20FEF7D2FA1420FDF7ACFC2D212920F4
:102A7000FEF7CBFA00215020FEF7C7FA4DF2EF0126
:102A80005120FEF7C2FA00215220FEF7BEFA40F2B2
:102A90003F115320FEF7B9FA00216120FEF7B5FA85
:102AA00000216A20FEF7B1FA4FF440719220FEF740
:102AB000ACFA05219320FEF7A8FA4FF480710720A5
:102AC000FEF7A3FA3CE293480088A0F50941893952
:102AD0007DD101210020FEF798FA4AF6A4010320D7
:102AE000FEF793FA00210C20FEF78FFA40F60C0156
:102AF0000D20FEF78AFA4FF42C510E20FEF785FACE
:102B0000B0211E20FEF781FA42F63F310120FEF788
:102B10007CFA4FF4C0610220FEF777FA0021102002
:102B2000FEF773FA46F270011120FEF76EFA0021EB
:102B30000520FEF76AFA00210620FEF766FA4EF637
:102B40001C711620FEF761FA03211720FEF75DFACB
:102B500040F233210720FEF758FA00210B20FEF740
:102B600054FA00210F20FEF750FA00214120FEF711
:102B70004CFA00214220FEF748FA00214820FEF7D7
:102B800044FA40F23F114920FEF73FFA00214A2063
:102B9000FEF73BFA00214B20FEF737FA4FF46F4166
:102BA0004420FEF732FA00214520FEF72EFA40F2CB
:102BB0003F114620FEF729FA40F207713020FEF758
:102BC00024FA4FF401713120FEF71FFA00E03DE0D6
:102BD0004FF401713220FEF718FA40F2025133200F
:102BE000FEF713FA40F207513420FEF70EFA4FF4C5
:102BF00001713520FEF709FA4FF401713620FEF716
:102C000004FA40F202513720FEF7FFF940F2023198
:102C10003A20FEF7FAF940F202313B20FEF7F5F9CF
:102C200000212320FEF7F1F900212420FEF7EDF921
:102C30004FF400412520FEF7E8F900214F20FEF770
:102C4000E4F900214E20FEF7E0F979E131480088EF
:102C5000A0F58A4131397CD101210020FEF7D5F958
:102C60000A20FDF7AFFB41F228611020FEF7CDF9F5
:102C70000E211220FEF7C9F940F639211320FEF784
:102C8000C4F90A20FDF79EFB40211120FEF7BDF993
:102C900050211520FEF7B9F90A20FDF793FB1E21FC
:102CA0001220FEF7B2F90A20FDF78CFB4FF4B15168
:102CB0001020FEF7AAF942F639211320FEF7A5F9F4
:102CC0000A20FDF77FFB4FF480710120FEF79DF98C
:102CD0004FF440710220FEF798F941F230010320D1
:102CE000FEF793F940F202210820FEF78EF9082141
:102CF0000A20FEF78AF900213020FEF786F940F21B
:102D000002413120FEF781F94FF483713220FEF742
:102D10007CF901E01600002040F203513320FEF759
:102D200074F94FF482713420FEF76FF940F20131EB
:102D30003520FEF76AF940F207713620FEF765F993
:102D400040F205313720FEF760F94FF40271382068
:102D500000E040E0FEF759F940F60B713920FEF72C
:102D600054F902214120FEF750F94FF41C51602024
:102D7000FEF74BF901216120FEF747F94FF404718A
:102D80009020FEF742F94FF485719220FEF73DF94D
:102D900004219320FEF739F94FF48071A020FEF74B
:102DA00034F901210720FEF730F921210720FEF731
:102DB0002CF923210720FEF728F933210720FEF7FD
:102DC00024F940F233110720FEF71FF90021A0205B
:102DD000FEF71BF9B4E0F9480088A0F58A413539BF
:102DE000F8D130211520FEF710F910219A20FEF7B6
:102DF0000CF920211120FEF708F943F22841102098
:102E0000FEF703F902211220FEF7FFF841F2380124
:102E10001320FEF7FAF82820FDF7D4FA122108460D
:102E2000FEF7F3F82820FDF7CDFA43F220411020F9
:102E3000FEF7EBF843F238011320FEF7E6F84620E0
:102E4000FDF7C0FA00213020FEF7DFF840F2024122
:102E50003120FEF7DAF840F207313220FEF7D5F8DC
:102E60004FF441713320FEF7D0F804213420FEF7EF
:102E7000CCF840F201413520FEF7C7F840F2077167
:102E80003620FEF7C2F840F205313720FEF7BDF8D4
:102E90004FF4C2613820FEF7B8F84FF4C261392010
:102EA000FEF7B3F84FF480710120FEF7AEF84FF44F
:102EB00040710220FEF7A9F841F230010320FEF72D
:102EC000A4F840F608010820FEF79FF808210A2020
:102ED000FEF79BF84FF41C516020FEF796F8012195
:102EE0006120FEF792F84FF49F719020FEF78DF865
:102EF0004FF480719220FEF788F84FF48071932090
:102F0000FEF783F84FF44051A020FEF77EF8102121
:102F1000A320FEF77AF801210720FEF776F8212199
:102F20000720FEF772F823210720FEF76EF8332101
:102F30000720FEF76AF840F233110720FEF765F824
:102F40000020FEF75BF901209D4908604FF6FF70F5
:102F5000FEF7C5FA10BD2DE9F05F05460E4617468F
:102F60009846DDF828A04FF0000B0020FEF746F948
:102F7000781B401C1FFA80FB34461EE02146284681
:102F800002F07AFAFEF75DF84FF0000911E04FF415
:102F900080708C490861400048618B48C0F800A0EF
:102FA0008020486108618000086109F101001FFA72
:102FB00080F9D945EBDB601C84B24445DEDD00209E
:102FC000FEF71CF9BDE8F09F2DE9FF4F85B0814663
:102FD0008A460020049003900798A0EB0905089802
:102FE000A0EB0A06CDF80890CDF804A0002D01DD75
:102FF000012705E00DB9002702E04FF0FF376D42D1
:10300000002E02DD4FF0010806E016B94FF000086F
:1030100002E04FF0FF387642B54201DD2C4600E079
:1030200034464FF0000B21E0019881B2029880B243
:10303000FEF73BFA04982844049003983044039028
:103040000498A04205DD0498001B049002983844BF
:1030500002900398A04205DD0398001B039001989D
:10306000404401900BF101001FFA80FB601C834576
:10307000DADD09B0BDE8F08F2DE9F04104460D46D8
:1030800016461F462B46324629462046FFF79CFF30
:103090003B46224629462046FFF796FF3B463246EE
:1030A00039462046FFF790FF3B46324629463046D8
:1030B000FFF78AFFBDE8F0812DE9F04706460F468D
:1030C0009046002445460320A0EB480948E03A1BFF
:1030D00091B2721B90B2FEF7E8F93A1B91B27219E5
:1030E00090B2FEF7E2F97A1991B2321B90B2FEF774
:1030F000DCF93A1B91B2721B90B2FEF7D6F97A1B3B
:1031000091B2321B90B2FEF7D0F93A1991B272190E
:1031100090B2FEF7CAF97A1B91B2321990B2FEF75B
:10312000C4F97A1991B2321990B2FEF7BEF93A1980
:1031300091B2721B90B2FEF7B8F9641CB9F1000F9E
:1031400003DAA000801D814404E0601B80000A3087
:1031500081446D1E7A1991B2321990B2FEF7A5F929
:10316000AC42B4DDBDE8F0872DE9F04105460E46DE
:10317000144616480788048031462846FEF795F91C
:1031800012480780BDE8F0812DE9F84F07468946CF
:1031900016461D46BB460D4800880090E82F02DC0D
:1031A000B9F59C7F01DDBDE8F88FA6F12000C6B21D
:1031B0000A98002844D100243FE0000016000020B7
:1031C000A8012242001001400C0C01401200002016
:1031D0000C2D07D106EB4600FA4901EB800010F8F0
:1031E00004A004E0F84800EB061010F804A04FF02B
:1031F000000816E01AF0010F03D0F4490098088087
:1032000003E0F3480088F149088049463846FEF754
:103210004CF94FEA6A0A781C87B208F1010000F005
:10322000FF0805EBD571B8EB610FE3DB5F4609F1F1
:1032300001001FFA80F9601CC4B2AC42C8DB2DE06B
:10324000002429E00C2D07D106EB4600DD4901EBF7
:10325000800010F804A004E0DB4800EB061010F832
:1032600004A04FF0000810E01AF0010F07D009EB9E
:10327000040291B207EB080290B2FEF716F94FEA8A
:103280006A0A08F1010000F0FF0805EBD571B8EB00
:10329000610FE9DB601CC4B2AC42D3DBCB490098C0
:1032A000088000BF7FE710B50246012000E05043D0
:1032B0000B00A1F10104E1B2F9D110BD2DE9FF4FDE
:1032C00081B0074691461E460E9D4FF0000A00242D
:1032D00039E0301B401EC1B20A20FFF7E4FFB9FB02
:1032E000F0F00A21B0FBF1F201FB1208BAF1000F75
:1032F00016D1701EA04213DDB8F1000F0ED10020D0
:10330000AB4605EBDB71491001FB0471009088B2FC
:103310002B4620220299FFF737FF12E04FF0010AF7
:103320000020AB4605EBDB71491001FB04710090F6
:1033300088B22B4608F13001CAB20299FFF724FF88
:1033400000BF601CC4B2B442C3DB05B0BDE8F08F5F
:103350002DE9FF4F81B0074690461D46DDE90E6A14
:1033600000241EE0281B401EC1B20A20FFF79BFF6D
:10337000B8FBF0F00A21B0FBF1F201FB1209B346F1
:1033800006EBDB71491001FB047188B2334609F189
:103390003001CAB2CDF800A00299FFF7F5FE601C1B
:1033A000C4B2AC42DEDB05B0BDE8F08F2DE9F05FC2
:1033B00007460D4616469846AB46002450E0182CAA
:1033C00009DA06EB460000EB4000824901EBC00041
:1033D00010F804901AE0302C0CDA06EB4600401C82
:1033E00000EB40007B4901EBC001A4F1180011F88B
:1033F00000900BE006EB4600801C00EB4000754996
:1034000001EBC001A4F1300011F800904FF0000A68
:1034100020E019F0800F05D0424629463846FFF7D4
:10342000A3FE05E06A48028829463846FFF79CFE5D
:103430004FEA49604FEA1069681C85B2A5EB0B00A2
:10344000182803D15D46781C87B206E00AF1010016
:1034500000F0FF0ABAF1080FDBDB00BF601CC4B24A
:10346000482CACDBBDE8F09F2DE9F05F07460E4627
:1034700015469846B346002455E0202C05DA5649F7
:1034800001EBC51010F8049023E0402C0ADA01206B
:1034900000EB8500504901EB4011A4F1200011F828
:1034A000009016E0602C0ADA022000EB85004A4901
:1034B00001EB4011A4F1400011F8009009E0032055
:1034C00000EB8500444901EB4011A4F1600011F8C4
:1034D00000904FF0000A20E019F0800F05D042461E
:1034E00031463846FFF740FE05E03948028831464C
:1034F0003846FFF739FE4FEA49604FEA1069701C01
:1035000086B2A6EB0B00202803D15E46781C87B25A
:1035100006E00AF1010000F0FF0ABAF1080FDBDB58
:1035200000BF601CC4B2802CA7DBBDE8F09F2DE972
:10353000F05F80460E4615469946B346002484E067
:10354000202C06DA05EB4500244901EB8010075DCD
:1035500051E0402C0BDA05EB4500012101EB400066
:103560001E4901EB4011A4F120000F5C43E0602CE8
:103570000BDA05EB4500022101EB4000174901EB96
:103580004011A4F140000F5C35E0802C0BDA05EB14
:103590004500032101EB4000104901EB4011A4F16B
:1035A00060000F5C27E0A02C1ADA05EB450004212F
:1035B00001EB4000094901EB4011A4F180000F5CD0
:1035C00019E00000965F00080A640008120000205D
:1035D000140000209A6A0008626F0008E274000874
:1035E00005EB4500052101EB40007B4901EB401153
:1035F000A4F1A0000F5C4FF0000A20E017F0800F4C
:1036000005D04A4631464046FFF7AEFD05E0734817
:10361000028831464046FFF7A7FD7806070E701C6A
:1036200086B2A6EB0B00302805D15E4608F10100FA
:103630001FFA80F806E00AF1010000F0FF0ABAF173
:10364000080FDBDB00BF601CC4B2C02CFFF678AFF4
:10365000BDE8F09F2DE9F05F07460E4615469846F7
:10366000B34600248CE0402C05DA5D4901EB45208F
:1036700010F804905AE0802C0ADA012000EBC50013
:10368000574901EB8011A4F1400011F800904DE082
:10369000C02C0ADA022000EBC500514901EB801171
:1036A000A4F1800011F8009040E0FF2C0ADC032018
:1036B00000EBC5004A4901EB8011A4F1C00011F8EC
:1036C000009033E0B4F5A07F0ADA042000EBC500D7
:1036D000434901EB8011A4F5807011F8009025E0BA
:1036E000B4F5C07F0ADA052000EBC5003C4901EBC8
:1036F0008011A4F5A07011F8009017E0B4F5E07FF8
:103700000ADA062000EBC500354901EB8011A4F56B
:10371000C07011F8009009E0072000EB85003049E7
:1037200001EB8011A4F5E07011F800904FF0000A51
:1037300020E019F0800F05D0424631463846FFF7A9
:1037400013FD05E02548028831463846FFF70CFD99
:103750004FEA49404FEA1049701C86B2A6EB0B00B5
:10376000402803D15E46781C87B206E00AF10100CA
:103770001FFA80FABAF1080FDBDB00BF601C84B2CD
:10378000B4F5007FFFF66FAFBDE8F09FF8B50546D2
:103790000E4614461BE0E82D03DD002506F110005F
:1037A00086B2B6F59C7F06DD0020054606464FF63C
:1037B000FF70FDF794FE0020009022781023314620
:1037C0002846FFF7E1FC05F1080085B2641C20786B
:1037D0000028E0D1F8BD0000E274000814000020C9
:1037E000E27200081848806940F0040016498861B8
:1037F0000846806940F0200088611448006820F085
:103800000F00124908600846006840F00300086095
:103810000E480830006840F480700C490831086098
:103820000B48006820F47060094908600846006889
:1038300040F44070086006480C30006840F0040016
:1038400003490C3108607047001002400408014031
:1038500000140140F0B503460C461546642093FB66
:10386000F0F0C6B2642093FBF0F700FB1730C1B252
:10387000132E02DD01F16400C1B20846CF1701EB3F
:10388000977701EBA702072092FBF0F700FB1720C8
:1038900082B25719601EDFF868C41CF80000384473
:1038A00082B2CF1701EB9777BF10B1EB870703D137
:1038B000032C01DA501E82B2072092FBF0F700FBC6
:1038C0001720C0B2F0BD0146CA1701EB92729210E8
:1038D000B1EB820212D1642091FBF0F200FB1210D6
:1038E00050B94FF4C87091FBF0F200FB121008B908
:1038F000012070470020FCE70120FAE70020F8E7EC
:1039000070B5002600240025FE4806883604001DF8
:1039100000880644FC48B6FBF0F4FC480088A0424E
:103920003AD0FA490C8040F2B2750EE02846FFF713
:10393000CAFF30B1B4F5B77F02D3A4F5B77402E083
:1039400006E0A4F26D14681C85B2B4F5B67FEDD81C
:1039500000BFEF488580002516E0ED498888FFF715
:10396000B2FF30B1012D04D11D2C01D31D3C09E063
:103970000CE0E848405DA04203D8E648405D241AC8
:1039800000E003E0681C85B21C2CE6D200BF681C76
:10399000DF498871601CC871DB48B6FBF0F100FBA1
:1039A00011644FF46160B4FBF0F0D94908704FF432
:1039B0006160B4FBF0F100FB11403C21B0FBF1F081
:1039C000D34948704FF46160B4FBF0F100FB114043
:1039D0003C21B0FBF1F201FB1200CD4988700B468F
:1039E000DA7999799888FFF735FFC949087200207C
:1039F00070BD2DE9F04705460E4617469846DDE9AD
:103A0000089A002340F2B270854203DB40F633008F
:103A1000854202DD0120BDE8F08740F2B2740AE081
:103A20002046FFF750FF10B1BB48034401E0BB48FC
:103A30000344601C84B2AC42F2DB701EC6B20024A8
:103A400010E0B448005D40F2A321484303EBC013EB
:103A50002846FFF738FF18B1012C01D1AA480344CA
:103A6000601C84B2B442ECDB781E40F2A3214843D0
:103A700003EBC013C8EB4810C0EB082003EB0013A6
:103A8000C9EB091003EB80035344A548C06940F01B
:103A90008050A349C8610846C06940F00060C86111
:103AA000A048006840F480709E490860954814382A
:103AB000008840F010009349143908809149091D8D
:103AC0000B80180C091F08808E481438008820F0DD
:103AD00010008C491439088000BF8A4814380088C7
:103AE00010F0200FF9D0002095E770B503460024B0
:103AF00009E013F8015B11F8016BB54201D0002019
:103B000070BD601CC4B29442F3DB0120F8E72DE9DC
:103B1000FE47002406E084480068005D02A90855BD
:103B2000601CC4B2032CF6DB00240BE004EB440160
:103B30007E4A8818032202A9FFF7D7FF00B103E0ED
:103B4000601CC4B20C2CF1DB00BF601CC6B276480E
:103B500000680079202805D1734800684079303822
:103B6000C5B20BE07048006841796F480068007981
:103B700030380A2202FB00103038C5B26A480068AB
:103B8000C07930384FF47A71484367490968097A37
:103B90003039642202FB010163480068407A303802
:103BA0000A2202FB001060490968897A084430380B
:103BB00087B25F48006841785D4800680078303817
:103BC00002FB0010303800F0FF0A59480068017904
:103BD00057480068C078303802FB0010303800F0D9
:103BE000FF0953480068C17951480068807930382E
:103BF00002FB0010303800F0FF0853462A463146D9
:103C00003846CDE90098FFF7F4FEBDE8FE8710B511
:103C1000002448480088A0F5A04150396ED04048A3
:103C2000C06940F080503E49C8610846C06940F014
:103C30000060C8613B48006840F480703949086002
:103C40003748006A40F48030354908620846006A07
:103C500020F4803008620846006A40F001000862E3
:103C600004E0601CC4B20A20FCF7ACFB2C48006ADC
:103C700010F0020F01D1FA2CF3DBFA2C01DB01204A
:103C800010BD2748006A40F4807025490862084644
:103C9000006A40F40040086200BF1A4814380088E7
:103CA00010F0200FF9D000BF16481438008810F02B
:103CB000080FF9D013481838008840F00100114966
:103CC0001839088000BF0F481438008810F0200F02
:103CD000F9D00C481438008840F010000949143914
:103CE00008800020091D088047F6FF70091D088024
:103CF000FFF70DFF0348143800881DE02BE000009B
:103D0000627C000818280040805101001800002043
:103D1000DC0000206E7C00080085E2018033E101B8
:103D200000100240007000401C0000207A7C000857
:103D300020000020046C004020F01000254908807D
:103D400000BF2448008810F0200FFAD045F2500040
:103D50002149088013E000BF1E48008810F0080FBA
:103D6000FAD01C48001F008840F001001949091FC3
:103D7000088000BF1748008810F0200FFAD00223F7
:103D8000032200210846FCF76FFBFFF7B9FD002076
:103D900076E700B50F48008810F0010F01D0FFF75B
:103DA000AFFD0C48008810F0020F05D009480088CC
:103DB00020F00200074908800648008840F6FA71A2
:103DC00008400449088000BF0248008810F0200F16
:103DD000FAD000BD04280040046C004008B5002063
:103DE000F84908804FF478430B221E210846FFF75C
:103DF000DDFA4FF478430C221E213C20FFF7D6FA5F
:103E00004FF478430D221E215A20FFF7CFFA4FF4CA
:103E100078430E221E217820FFF7C8FA4FF478432A
:103E20000F221E219620FFF7C1FA4FF4784310228B
:103E30001E21B420FFF7BAFA4FF4FC63002246219A
:103E40000A20FFF7B3FA4FF4FC6301224621222037
:103E5000FFF7ACFADCA249213C20FFF797FC4FF4B6
:103E6000FC63002269210A20FFF7A0FA4FF4FC63EB
:103E7000022269212220FFF799FAD3A26C213C206B
:103E8000FFF784FC4FF4FC6303228C210A20FFF728
:103E90008DFA4FF4FC6304228C212220FFF786FA6E
:103EA000C9A28F213C20FFF771FC4FF4FC6305226F
:103EB000AF210A20FFF77AFA4FF4FC630622AF2104
:103EC0002220FFF773FAC0A2B2213C20FFF75EFC6C
:103ED0004FF4FC630022D2210A20FFF767FA4FF467
:103EE000FC630722D2212220FFF760FAB6A2D52177
:103EF0003C20FFF74BFC4FF61F004FF49173B422A8
:103F0000F52100903C20FFF726F84FF61F00AD4941
:103F100008804FF47840AD49088003460922FF210C
:103F20005A20FFF743FA4FF478430A22FF217C20FE
:103F3000FFF73CFA08BD10B50120A5490870032021
:103F40004870002088704820C87000200871062042
:103F5000487106219E48FCF707FC9E490860084608
:103F600040789B4988719B480078C871082198481F
:103F7000FCF7D3FC10BD10B5012095490870102046
:103F80004870002088700C20C87000200871022042
:103F90004871042088710020C871087248728872C4
:103FA0000B218B48FCF7E0FB8A4908600846407803
:103FB0008749C8728748007808730D218448FCF748
:103FC000ACFC10BD8449097801293AD10021824A0C
:103FD0001170824A11701146CA79897942EA012129
:103FE0007F4A11807D494A7A097A42EA01217D4A55
:103FF00011807A49CA7A897A42EA01217A4A118083
:104000007649097B0A067549497B42EA01427349B0
:10401000897B42EA0121714AD27B1143734A1160C4
:104020006E494A7C097C42EA0121714A11800020D4
:1040300005E000226949C91C0A54411CC8B2122873
:10404000F7DB70472DE9FE4F65480088642190FB3F
:10405000F1F085B26248008890FBF1F201FB12009A
:104060000A2190FBF1F086B25E4800884FF47A7125
:1040700090FBF1F087B25B48008890FBF1F201FB06
:1040800012001FFA80F85A48008890FBF1F01FFADE
:1040900080FB5748008890FBF1F201FB120080B2D0
:1040A000029052480068C0F34F14642094FBF0F073
:1040B0001FFA80F9642094FBF0F100FB11401FFA15
:1040C00080FA00203F4908804FF6FF703F49088082
:1040D000102003232A46482100907820FFF7EEF8AD
:1040E00044A248219020FFF751FB102001233246C3
:1040F000482100909820FFF7E1F83FA24821A8202E
:10410000FFF744FB102001233A466B2100907820F2
:10411000FFF7D4F837A26B218020FFF737FB002090
:10412000102103234246CDE900106B218820FFF7C0
:104130000FF932A26B21A820FFF728FB10200123E2
:104140005A46B12100907820FFF7B8F829A2B12192
:104150008020FFF71BFB002010210323CDE9001076
:10416000B1218820029AFFF7F3F810200523009070
:104170001D4802888E217820FFF7A0F820A28E210A
:10418000A820FFF703FB102003234A46D421009008
:104190007020FFF793F817A2D4218820FFF7F6FAD2
:1041A0000020102102235246CDE90010D421902096
:1041B000FFF7CEF813A2D421A820FFF7E7FABDE855
:1041C000FE8F0000140000203A00000012000020C2
:1041D000740000200C00002004000020B400002027
:1041E0002400002026000020280000202C000020B1
:1041F000300000202E0000005600000041000000AA
:10420000570000004B57680010B53D48008810F07B
:10421000010F01D0FFF78FFE3948008820F0010020
:104220003749088010BD70B505460C463548C06951
:1042300040F002003349C86131481C300580001F3E
:1042400004802F48001F008840F001002C49091FFE
:1042500008802B481038008840F0010028491039A8
:10426000088002231D2203210120FCF7FDF870BD08
:10427000244AD26942F00202224BDA61224A1268D1
:1042800022F00F02204B1A601A46126842F0040214
:104290001A601A1F126822F070421B1F1A601A4619
:1042A000126842F030421A60174A0832126842F02F
:1042B0008002154B08331A60114A1C321080121FFD
:1042C00011800F4A0832128842F4E0420C4B083346
:1042D0001A801A46128842F400621A80084A103284
:1042E000128842F01002064B10331A80DA13044B86
:1042F000103B1A801A46128842F001021A80704759
:10430000100400400010024004080140002100BFDA
:1043100019E010F0800F03D00122F94B1A6002E07F
:104320000022F74B1A604FEA40624FEA12604FF0EA
:104330000002F44B1A604FF00102F34BC3F88021E6
:1043400001F10102D1B20829E3DB704770B50646DE
:10435000002500240020EB490860EB49C1F8B401B6
:104360003046FFF7D3FF0620FCF747F80120E54968
:1043700008604FF00000E449C1F8800100BF10E080
:104380006004040C0020DF4908604FF00100DE49A2
:10439000C1F88001DD48006808B1601C84B2681C67
:1043A000C5B2102DECDB24110120D949086020464C
:1043B00070BD2DE9F04188B080460027002406E05A
:1043C0004046FFF7C3FF2DF81400601C84B20F2C89
:1043D000F6DB002416E0601C85B20FE03DF8140007
:1043E0003DF81510884207DD3DF814603DF81500D2
:1043F0002DF814002DF81560681C85B20F2DEDDB2B
:10440000601C84B20E2CE6DB0027052405E03DF895
:104410001400384487B2601C84B20A2CF7DB0520F4
:1044200097FBF0F086B2304608B0BDE8F0812DE988
:10443000F04104460D46B7480078FFF7BAFF06463C
:10444000B5480078FFF7B5FF0746642E01DB642FFF
:1044500002DA0020BDE8F08126802F800120F9E7F4
:104460007FB504460D4602A903A8FFF7E0FF064604
:1044700016B9002004B070BD694601A8FFF7D7FF48
:1044800006460EB90020F5E7BDF80400BDF80C1093
:10449000884206DCBDF80C10BDF8040032308142C1
:1044A0000CDBBDF80C00BDF80410884236DCBDF80A
:1044B0000410BDF80C00323081422FDABDF8000044
:1044C000BDF80810884206DCBDF80810BDF80000F1
:1044D000323081420CDBBDF80800BDF80010884284
:1044E0001CDCBDF80010BDF808003230814215DA3E
:1044F000BDF80C10BDF80420881800EBD071C1F392
:104500004F012180BDF80810BDF80020881800EB8D
:10451000D071C1F34F0129800120ABE70020A9E74A
:1045200030B17E49096841F002017C4A116005E022
:104530007A49096821F00201784A1160704710B584
:1045400000240020FFF7ECFF002075490872891D48
:10455000881EFFF785FF04E0601CC4B20A20FBF749
:1045600031FF7048006808B9FA2CF5DD0120FFF72B
:10457000D7FFFA2C01DB002010BD0120FCE770B54D
:1045800004460D46A4F10C0188B22B4604F10D023D
:104590002946FEF719FDA5F10C0081B2193083B24E
:1045A00022462046FEF710FD681C81B2601CFCF715
:1045B0007CFF611E88B2691C89B2FCF776FF681E19
:1045C00081B2601CFCF771FF6A1E91B2621E90B24C
:1045D000FCF76BFF062229462046FEF76DFD70BDF5
:1045E00070B505460C4621462846FCF75EFF21467D
:1045F000681CFCF75AFF601C81B22846FCF755FF87
:10460000601C81B2681CFCF750FF70BD2DE9F041C1
:104610004349891D881EFFF723FF80B34049B1F944
:10462000140001F039FB06463D49888801F04CFB37
:1046300007463B48C168384601F05AFB05463146FB
:1046400001F0CAF9044601F007FB35490880B1F9C9
:10465000160001F021FB06463149C88801F034FB01
:1046600007462F480169384601F042FB05463146AE
:1046700001F0B2F9044601F0EFFA29494880BDE89B
:10468000F081012026490872022024491431086073
:10469000704770B52249C868234901F029FB0546D7
:1046A00001F0BEFA0446042221462820FCF7ACF9AA
:1046B0001B4908691C4901F01BFB054601F0B0FAD3
:1046C0000446042221462C20FCF79EF91448B0F938
:1046D000141002223020FCF797F91148B0F9161097
:1046E00002223220FCF790F90D48017E3420FCF7BD
:1046F00063F90A2421463520FCF75EF970BD0000FD
:104700008C01224280012242000022420801224202
:10471000B401224232000020330000200004014096
:10472000E80000200401224220BCBE4C70B53520B8
:10473000FCF716F904460A2C40D104212820FCF786
:1047400078F90446204601F0A7FA0546FB4901F036
:10475000A5F9FB49C86004212C20FCF76AF904463E
:10476000204601F099FA0546F44901F097F9F44919
:10477000086102213020FCF75CF900B2F049888220
:1047800002213220FCF755F900B2ED49C8823420ED
:10479000FCF7E6F8EA4908760846007E30B190203A
:1047A000E8490870D020E849087005E0D020E549C4
:1047B00008709020E4490870012070BD0020FCE7DB
:1047C00010B50446E1A228210846FEF7DFFFE5A266
:1047D0003C212820FEF7DAFFE8A250212820FEF72E
:1047E000D5FFECA264212820FEF7D0FFE9A26421C6
:1047F0002820FEF7CBFF224678212820FEF7C6FFAF
:1048000010BD00B591B000200B900B901F20E74920
:1048100008804FF6FF70E6490880FCF760FE4FF411
:104820007840E24908804FF6FF70FCF758FE1421EB
:104830000846FFF7A4FE0020C1490872C86076E26E
:10484000BF48007A012872D1FFF779FE88B1BC48D1
:10485000808801B20CAA0B9822F82010B848C088B2
:1048600001B20B9802EB800041800B98401CC0B253
:104870000B900B98012806D002280DD0032815D0E4
:10488000042808D11CE04FF6FF70FCF728FE142125
:10489000DC20FFF774FEF8E34FF6FF70FCF71FFE15
:1048A0004FF496711420FFF76AFEF4E74FF6FF709D
:1048B000FCF715FE4FF49671DC20FFF760FEEAE787
:1048C000BDF93000BDF93410401A059001D40598A7
:1048D00001E0059840420890BDF93210BDF936005C
:1048E000081A059001D4059801E005984042079008
:1048F000089840430890079840430790DDE9071067
:104900000844019000F07DFECDE9020100F01AFE9E
:10491000CDE9040100F048FE80B20A90BDF93800EC
:10492000BDF93C10401A059002D4059802E0CFE38F
:10493000059840420890BDF93A10BDF93E00081AAA
:10494000059001D4059801E0059840420790089829
:1049500040430890079840430790DDE9071008445A
:10496000019000F04EFECDE9020100F0EBFDCDE933
:10497000040100F019FE80B20990099801F0A4F931
:1049800005900A9801F0A0F90490059901F086F8C5
:104990000690069800F0F4FF4FF06632854BCDE9A3
:1049A000040100F041FE0ED3069800F0E9FF824AB0
:1049B000824BCDE9040100F0C7FE04D30A9810B180
:1049C0000998002876D100200B904FF6FF70FCF775
:1049D00086FD14210846FFF7D2FD79A0FFF7F0FE0F
:1049E00010200090BDF930000423024628210590D4
:1049F0004020FEF763FC10200090BDF93200042334
:104A00000246282105909020FEF758FC10200090C7
:104A1000BDF93400042302463C2105904020FEF7F6
:104A20004DFC10200090BDF93600042302463C21C5
:104A300005909020FEF742FC10200090BDF9380050
:104A400004230246502105904020FEF737FC102039
:104A50000090BDF93A0004230246502105909020B1
:104A6000FEF72CFC10200090BDF93C000423024608
:104A7000642105904020FEF721FC10200090BDF934
:104A80003E0004230246642105909020FEF716FCA8
:104A90004E49069801F02CF9049001F0DDF80590DC
:104AA0001020032300908C212820059AFEF706FC95
:104AB0000FE3FFE7BDF93000BDF93810401A05904B
:104AC00001D4059801E0059840420890BDF93210E4
:104AD000BDF93A00081A059001D4059801E005983F
:104AE0004042079008984043089007984043079039
:104AF000DDE907100844019000F083FDCDE90201D3
:104B000000F020FDCDE9040100F04EFD80B20A90D6
:104B1000BDF93400BDF93C10401A059001D4059848
:104B200001E0059840420890BDF93610BDF93E00FD
:104B3000081A05904CD405984CE0000020BCBE4CEF
:104B4000E8000020320000203300002078313A20B5
:104B500020202020202079313A20202020202020D1
:104B60000000000078323A202020202020207932D6
:104B70003A202020202020200000000078333A2016
:104B800020202020202079333A202020202020209F
:104B90000000000078343A202020202020207934A2
:104BA0003A202020202020200000000012000020B9
:104BB000140000206666EE3FCDCCCCCCCCCCF03FD0
:104BC000766572206661632069733A000000C8420E
:104BD0000598404207900898404308900798404342
:104BE0000790DDE907100844019000F00AFDCDE9C7
:104BF000020100F0A7FCCDE9040100F0D5FC80B271
:104C00000990099801F060F805900A9801F05CF8A5
:104C10000490059900F042FF0690069800F0B0FE5F
:104C20004FF06632F74BCDE9040100F0FDFC09D3EB
:104C3000069800F0A5FEF44AF44BCDE9040100F01B
:104C400083FD76D200200B904FF6FF70FCF747FCF7
:104C500014210846FFF793FCEDA0FFF7B1FD1020EB
:104C60000090BDF930000423024628210590402021
:104C7000FEF724FB10200090BDF932000423024609
:104C8000282105909020FEF719FB10200090BDF917
:104C90003400042302463C2105904020FEF70EFB21
:104CA00010200090BDF93600042302463C210590F7
:104CB0009020FEF703FB10200090BDF9380004237C
:104CC0000246502105904020FEF7F8FA102000908F
:104CD000BDF93A0004230246502105909020FEF7CA
:104CE000EDFA10200090BDF93C0004230246642137
:104CF00005904020FEF7E2FA10200090BDF93E003A
:104D000004230246642105909020FEF7D7FAC34998
:104D1000069800F0EDFF049000F09EFF0590102033
:104D2000032300908C212820059AFEF7C7FAD0E1D2
:104D3000FFE7BDF93400BDF93810401A059001D4E1
:104D4000059801E0059840420890BDF93610BDF97C
:104D50003A00081A059001D4059801E005984042F0
:104D60000790089840430890079840430790DDE972
:104D700007100844019000F044FCCDE9020100F066
:104D8000E1FBCDE9040100F00FFC80B20A90BDF90F
:104D90003000BDF93C10401A059001D4059801E09F
:104DA000059840420890BDF93210BDF93E00081A3E
:104DB000059001D4059801E00598404207900898B5
:104DC00040430890079840430790DDE907100844E6
:104DD000019000F016FCCDE9020100F0B3FBCDE933
:104DE000040100F0E1FB80B20990099800F06CFF2B
:104DF00005900A9800F068FF0490059900F04EFEB7
:104E00000690069800F0BCFD4FF066327D4BCDE970
:104E1000040100F009FC09D3069800F0B1FD7A4ABC
:104E20007A4BCDE9040100F08FFC76D200200B9084
:104E30004FF6FF70FCF753FB14210846FFF79FFB6A
:104E400077A0FFF7BDFC10200090BDF930000423CF
:104E50000246282105904020FEF730FA10200090ED
:104E6000BDF9320004230246282105909020FEF768
:104E700025FA10200090BDF93400042302463C219D
:104E800005904020FEF71AFA10200090BDF9360078
:104E9000042302463C2105909020FEF70FFA1020D3
:104EA0000090BDF9380004230246502105904020AF
:104EB000FEF704FA10200090BDF93A0004230246E0
:104EC000502105909020FEF7F9F910200090BDF9CF
:104ED0003C0004230246642105904020FEF7EEF9D1
:104EE00010200090BDF93E00042302466421059085
:104EF0009020FEF7E3F94949069800F0F9FE049086
:104F000000F0AAFE05901020032300908C21282099
:104F1000059AFEF7D3F9DCE0FFE7BDF93400BDF9EF
:104F20003010401A049000F0B7FE014605903F484B
:104F300000F0B4FD3E49C860BDF93400BDF9301041
:104F40000844019000F0A8FE02903948C06801466C
:104F50000190029800F0CCFE3649039000F09BFFD0
:104F60004FF08041049000F099FD059000F058FE4C
:104F700000B22F498882BDF93A00BDF93210401ABB
:104F8000049000F089FE014605902B4800F086FD54
:104F900027490861BDF93A00BDF932100844019073
:104FA00000F07AFE029022480069014601900298C2
:104FB00000F09EFE2149039000F06DFF4FF080410C
:104FC000049000F06BFD059000F02AFE00B2184935
:104FD000C8820846C068039000F022FE04900028B2
:104FE00001DB049801E00498404202282CDC1048C0
:104FF0000069039000F014FE0590002820DB05985E
:1050000020E000006666EE3FCDCCCCCCCCCCF03FAF
:10501000686F72206661632069733A000000C842BD
:10502000646961206661632069733A000000484347
:10503000E80000200000704300008C430000A04303
:105040000598404202282CDD00200B904FF6FF709F
:10505000FCF745FA14210846FFF791FA51A26E2198
:105060002320FEF793FB5448007E08B9012000E09E
:105070000020514908760846007E38B190204F49FB
:105080000870D0204E49087006E020E0D0204B493F
:10509000087090204A4908704FF4FA70FBF792F9B3
:1050A00017E01F20474908804FF6FF70FCF717FAFA
:1050B00045A26E212320FEF769FB4FF4FA70FBF73F
:1050C00081F94FF6FF70FCF70AFA11B000BD00BF7E
:1050D00000BFFFF7B5BB10B54148806940F0100034
:1050E0003F4988610846806940F0010088613D4879
:1050F00000686FF30F003B4908600846006843F6FC
:1051000083010843374908600846406820F470006E
:1051100048600846406840F4401048600846C0684F
:1051200042F20F0108432F49C8602349891D881E98
:10513000FFF77DF90223072200211846FBF794F9B7
:105140002748806940F00100254988612648806829
:1051500040F02000244988602448006840F00200A4
:1051600022490860081D006840F00200091D08601F
:105170001E480C30006840F002001C490C310860E9
:10518000FBF7EAFBFFF7D2FA00B110BD4FF6FF7054
:10519000FCF7A5F9FFF735FBFFF77BFAFFF7C6FA37
:1051A00000BFF2E75450204E65656420726561646B
:1051B0006A75737421000000E800002032000020AE
:1051C0003300002012000020546F75636820536381
:1051D0007265656E2041646A757374204F4B2100BF
:1051E0000010024000100140000001400004014096
:1051F000704700000FB4044910B503AA029800F0EC
:10520000D5F810BC5DF814FB080000202DE9F04132
:1052100004460E4600200AE0E1682046884738B37D
:10522000252806D0D4E901219047206A401C20623D
:10523000F2E7E168204600278847050018D0A5F16D
:105240004100192802D820354FF40067324629461C
:1052500020462760FAF784FF40B1012804D0F61DEC
:1052600026F007060836D7E7361DD5E72846D9E7E2
:10527000206ABDE8F081000070B504460D46214665
:105280001068AFF300802168090502D5104A7A44FE
:1052900002E00F4A7A440E32002104F1240307E0B1
:1052A00000F00F064FEA1010965D5E5401F1010107
:1052B0000028F5D103462068000704D5702D02D0E0
:1052C00009B1113202232046BDE8704000F011B848
:1052D0000C2A0000704770477047704710B500F007
:1052E00077F8006810BD10B5044600F071F804604E
:1052F00010BD2DE9F0470D4604469246994600F14F
:1053000024080168880604D5E06921F010012160B5
:1053100000E00120A84202DDA0EB050700E0002725
:10532000A16907EB050202EB0900A1EB0000A061F7
:105330002068C00602D42046AFF30080002608E0B3
:10534000D4E901211AF806009047206A401C761C17
:1053500020624E45F4DB2068C0060AD52046AFF334
:10536000008006E0D4E9012130209047206A401CEB
:105370002062381EA7F10107F4DC07E0D4E901211F
:1053800018F805009047206A401C2062281EA5F1ED
:105390000105F3DC2046AFF300802068000602D54B
:1053A0000220BDE8F0870120FBE70000074B70B545
:1053B0000C467B4400F015F80546204600F024F822
:1053C00010B14FF0FF3070BD284670BD71B3FFFFC4
:1053D000004870470401002001694A1C02610878F6
:1053E000704700B58FB0CDE9013100210591054925
:1053F0007944CDE9031011466846FFF707FF0FB067
:1054000000BD0000E5FFFFFFC06800F080007047AE
:1054100000487047040100207546FFF7F9FFAE46CB
:1054200005006946534620F00700854618B020B5B0
:10543000FAF7BEFEBDE820404FF000064FF000072F
:105440004FF000084FF0000B21F00701AC46ACE82C
:10545000C009ACE8C009ACE8C009ACE8C0098D4699
:1054600070470446AFF300802046FAF78DFE000037
:10547000004870470801002030B504460D462E480C
:105480000088A0F50941893908D121464E20FBF753
:10549000BCFD29464F20FBF7B8FD4CE026480088AC
:1054A000A0F5134141393ED12A20FBF76FFD4FF49F
:1054B000807022490861400048612012204908603C
:1054C00080201E4948610861800008614010086121
:1054D00040004861E0B21A490860802017494861DD
:1054E0000861800008612B20FBF750FD4FF48070AD
:1054F0001249086140004861281211490860802063
:105500000E49486108618000086140100861400050
:105510004861E8B20A49086080200849486108618A
:105520008000086107E021462020FBF76EFD294638
:105530002120FBF76AFD30BD16000020001001405D
:105540000C0C01402DE9F04106460F4600F032F9FF
:105550000D46040018BF0120284320F00040C0F190
:105560007F6010F1E0400FD5002E14BF0120002015
:10557000384320F00040C0F17F6000F1E040002897
:10558000A4BF0120FFF7AFFE20462946BDE8F08109
:10559000491058BFC1F140415B1058BFC3F14043AF
:1055A0008B42EFF3008070474FEA1153A3F58063FD
:1055B000D3F11E03A8BFD3F1200C08DB4FF000424B
:1055C00042EAC12252EA505232FA03F070470942CD
:1055D0000BD4102BC4BF0020704703F5787CBCF1BE
:1055E000FF3F05D04FF0FF3070474FF0000070478D
:1055F00070B500F055F800BF499224800020704734
:10560000F0E7B0FA80F310FA03F10AD0C3F11D03FA
:1056100003F580634FEA41504FEA035202EBD12178
:1056200070474FF00000704751EA030C17D41CF587
:10563000801F58BFBCF5801F00F10680994218BF3B
:10564000704708BF9042704707D711F5801F58BFB9
:1056500013F5801F19D499427047894270471CF591
:10566000801F08D5BCF5801FF7D58B4218BF704747
:1056700008BF824270474FF4001C1CEB410F38BF3B
:105680001CEB430F01D28B42704770B500F008F855
:10569000922449004FF000514FF08053FFF778BF3C
:1056A0000EF1020E2EF0030E5EF8046B364205D4A6
:1056B000012A43EB030515F5001F12D8012841EB21
:1056C000010C1CF5001F0CD80ED14FEAD17C15F54A
:1056D000001F0CEB4C0C0CF1020C08BF4CEBD37C04
:1056E00004E04FF0080C01E04FEAD37C0CEB4C05D2
:1056F00026FA05F606F00706B6F1040C06D20EEB04
:10570000860CBDE870404CF0010C6047DFE80CF0FF
:10571000090B02024FF000414FF00000A1F50021FB
:1057200070BD19461046012851EB010418BFD4F58D
:10573000001484BF002001F0004170BD0808A0F5EE
:1057400000114FEA3101704753EA010C17D41CF5E0
:10575000801F58BFBCF5801F00F106808B4218BF28
:10576000704708BF8242704707D713F5801F58BFA4
:1057700011F5801F19D48B4270479B4270471CF56E
:10578000801F08D5BCF5801FF7D5994218BF704718
:1057900008BF904270474FF4001C1CEB430F38BF0A
:1057A0001CEB410F01D2994270470FB40CBC03BCF3
:1057B000FFF76BBF2DE9F04101F5801CBCF5001F20
:1057C000C0F2C3804FEA115C21EA0C510CF1FD0CD0
:1057D00041F480115FEA5C0C0CF5C07C01D3400001
:1057E00049413DA4890241EA905187028E0E0A0C7C
:1057F000A45D04FB04F602FB06F6C6F14046A4FBDA
:105800000662F60D46EA422606FB06F4A4FB0123D7
:105810005242C3F1404338BF5B1EA6FB0242002444
:10582000E6FB0324D20B42EA4446A6FB0623A1FB77
:1058300002E2A3FB07E4A4184FF0000252F10002B9
:10584000E3FB01426442C2F1404E38BFAEF1010EAB
:10585000A6FB04234FF00002E6FB0E32A2FB034638
:105860004FF00004B61954F10004E2FB0264A1FBFE
:1058700006E6A4FB07E816EB08064FF0000858F10F
:105880000008E4FB01687642C8F1405838BFA8F12F
:105890000108A2FB06E4A3FB08E52D194FF0000464
:1058A00054F10004E2FB0854A1FB05E6A7FB04E861
:1058B00018EB06084FF0000656F10006E1FB0486DF
:1058C00018F1200556F10006A809A8F11B08B10936
:1058D00008F03F08B8F10A0F40EA86601CD901EBD6
:1058E0000C51BDE8F08100BFFCF5EEE8E2DDD8D355
:1058F000CFCBC7C3C0BDB9B6B4B1AEACA9A7A5A341
:10590000A19F9D9B9A9896959392908F8D8C8B8951
:105910008887868584838281A0FB006800FB01F272
:1059200008EB4208B8EB872807D5341858EB010478
:10593000D5D5401C51F10001D1E7341A78EB0104B0
:10594000CDD4401E71F10001C9E75FEA4C0C5FEA5B
:105950009C5C0DD105D34FF0000001F00041BDE883
:10596000F081BDE8F04170B5FFF79AFE6DDBFFBE38
:10597000BDE8F0414FF00000004970470000F87F9B
:1059800043004FEAD30C4FEA3C0C43401FBF400793
:105990000CF1605113F0FE4F70471CF0006F03D103
:1059A00000200CF0004170470CF0004343EA5070B7
:1059B00010B540EACC0000F01CFA00BF00000092D5
:1059C0004FEA0001FFF7BABE4FF000414FF0000070
:1059D000A1F500217047000090EA010F48BF81F057
:1059E000004100F16A82421A3CBF801A89184FEACE
:1059F000D0524FF07F4C1CEA410FA2EBD15318BF9D
:105A00009CEA026F00F03B804FF0004C4CEA002013
:105A10004CEA012121FA03FC10EB0C0C1ED202F11E
:105A2000FF325FEA1C2040EBC25038BF70471CF0C9
:105A30007F0F4FEA400C18BFBCF17F4F38BF704753
:105A4000C3F12003994008BF20F00100BCF17F4F53
:105A500038BF7047A0F1C04000F018BA4FEA3C00D0
:105A6000000A40EBC25028BF1CF0FF0F4FEA400C69
:105A7000E6D018BFBCF17F4F38BF7047EAE79CEA19
:105A8000026F05D010EA5C0F08BF00F000407047BD
:105A900010B500F0AEF900BF64FBBE3E4FF47F0CC2
:105AA0001CEAD0121EBF1CEAD11392EA0C0F93EA33
:105AB0000C0F00F0858090EA010F48BF42F480721D
:105AC00040F4000C41F400002CF07F4120F07F40B6
:105AD00000B58142A2EB03020FF2081CACEB504E62
